:030000000213E9FF
:0C13E900787FE4F6D8FD758120021430F6
:100CD000413AC7A9B5BD2020453AC9CFBFCE004291
:100CE0003AD7A2B2E12020463AD7A2CFFA00433A3F
:100CF000B2E9BFB4C8B1C7DA00443AB2E9BFB4B38D
:100D0000D9B5BD00D5D4DAC7A9B5BD002020C7EB41
:100D1000CBA2BFA8C6AC202000413ACDCBB3F60091
:100D20000020202020202020200020202020202003
:100D3000002020C4E3D2D1B3D9B5BD202000BFA884
:100D4000BAC53A2000D2D1BEADC7A9B5BDB3C9B9A5
:100D5000A600C7A9B5BDB3C9B9A600B4CBBFA8CE7C
:100D6000DED0A700D5D4DAD7A2B2E100C7EBB7C571
:100D7000BFA8C6AC00B4CBBFA8D2D1D7A2B2E1B94C
:100D800000D5D4DAD7A2B2E12E2E2E2E002020D705
:100D9000A2B2E1B3C9B9A62020002020D7A2B2E1B7
:100DA000CAA7B0DC202000202020202020202020E6
:100DB000202020202020202000D5D4DAD7A2CFFA6E
:100DC00000D5D4DAD7A2CFFA2E2E2E2E002020D78F
:100DD000A2CFFAB3C9B9A62020002020D7A2CFFA0B
:100DE000CAA7B0DC202000B4CBBFA8D2D1D7A2CFF5
:100DF000FAB900C8B1C7DAC8CBD4B100B3D9B5BD10
:0E0E0000C8CBD4B100BFAACABCC9CFBFCE00B8
:10157F00460000201210010000460021FFFFFFFF70
:10158F00FFFF5000110000000000000000000000ED
:10159F000000000000500053000000000000FF0793
:1015AF00806900000000000054003F0000000000B0
:1015BF0000000000000000000000000000000054C8
:1015CF00002A0000000000000000000000000000E2
:1015DF00000000000000410027FF410063004100B0
:1015EF003E00410006004100070041002900410074
:0215FF002800C2
:04193A007FF47E01B7
:10193E00E4FDFCC3ED9FEC9E5015E4FBFA0BBB00DF
:0F194E00010AEB64784A70F50DBD00010C80E4CE
:01195D002267
:10166B007B017A0079117F26121475EF60117B01D3
:10167B007A0079117F26121475EF60037F00227BAD
:10168B00017A0079131210B2EF60037F00227B0105
:10169B007A00791312116FEF60037F00229000889C
:1016AB007401F0A37400F0A37413F07B017A00793A
:1016BB00007D077F60121602EF60037F01227F021D
:0116CB0022FC
:060FF0007B017A00791379
:0B0FF600900083EBF0A3EAF0A3E9F009
:101001009000907401F0A37400F0A37486F0E4FFE3
:10101100900083E0FBA3E0FAA3E0F9120980C45435
:101021000FFEC39400400BEED394095005EE24301B
:101031008003EE2437FD900090E0FBA3E475F001FE
:10104100120A10A9F0FAED1209C6900083E0FBA381
:10105100E0FAA3E0F9120980540FFEC39400400B9B
:10106100EED394095005EE24308003EE2437FE9030
:101071000090E0FBA3E475F001120A10A9F0FAEE6A
:101081001209C6900084E475F0011209FA0FEF64A9
:10109100046003021011900090E0FBA3E475F001DD
:1010A100120A10A9F0FAE41209C67B017A007986C6
:0110B100221C
:1018C1007B017A007972121358786E7C007D017B5E
:1018D100017A0079727E007F0412095A90006EE04D
:0A18E100FCA3E0FDA3E0FEA3E0FF7E
:0118EB0022DA
:10121E0090007F120A62000000007E007F107D00A9
:10122E007B017A00796F120A937B017A00796E7FC7
:10123E00FA12198250F312166BEF6402707390005B
:10124E006EE004F090006EE0FD7FFA1219A650F4E5
:10125E0090006EE0FFE4FCFDFE90007F120A5678CF
:10126E006F7C007D017B017A00797F7E007F041206
:10127E00095A7B017A00796F7F051212C2EF600363
:10128E007F0022120FF078087C007D017E007F081F
:10129E0012095A90006EE01475F008A4FF7B017AD3
:1012AE000079089000877408F012175550E57F01F9
:0312BE00227F008C
:0112C100220A
:10000300D2B5D2B6D2B7121A28121B599000107467
:1000130001F07E007F14FDFB7A00792A120A931205
:100023001B2F7B017A00796D7FDC12198250F390CC
:10003300006DE0640970287B017A00793F900072BB
:100043007408F07FE81216CC50ED7B017A007947F3
:100053009000727408F07FF01216CC402880EB7B7E
:10006300017A00793F9000877408F07FE8121755F2
:1000730050ED7B017A0079479000877408F07FF098
:1000830012175550ED900010E0FF900027E06F60CD
:1000930005EFF0121B59900010E024FE70030202DA
:1000A300F514604C14700302038714700302047286
:1000B300147003020530240570CB7BFF7A0C79D0D2
:1000C300E4FDFF1217CC7BFF7A0C79DFE4FD7F019F
:1000D3001217CC7BFF7A0C79EEE4FD7F021217CC6A
:1000E3007BFF7A0C79F9E4FD7F031217CC02046CD1
:1000F30012166B900068EFF07052D2B5D2B6D2B739
:100103007BFF7A0D79047D02FF1217CC7BFF7A0DFA
:10011300790C7D017F011217CC7BFF7A0D79197D54
:10012300027F021217CC7BFF7A0D7920E4FD7F0357
:100133001217CCE4900064F07F20121B4B900064F4
:10014300E004F0E0C3941040EF0202F2900068E094
:10015300640260030202A9C2B67F051218C19000AF
:1001630069120A56900029E06401706D900069A33A
:10017300A3E0FEA3E02429F58274003EF583E0901A
:10018300006DF0E064016003020269F0E0FB90009F
:1001930069A3A3A3E0FF2429F58274003EF583EB52
:1001A300F090006D7401F0E0FD743E2FF582740051
:1001B3003EF583EDF07BFF7A0D79217D02E4FF129A
:1001C30017CC7BFF7A0D792A7D027F021217CC7B35
:1001D300FF7A0D79317D018067900069A3A3E0FE6A
:1001E300A3E0243EF58274003EF583E090006DF0B9
:1001F300E0707304F0E0FB900069A3A3A3E0FF2485
:100203003EF58274003EF583EBF090006D7402F0CE
:10021300E0FD74292FF58274003EF583EDF07BFF3A
:100223007A0D79217D02E4FF1217CC7BFF7A0D79D9
:100233002A7D027F021217CC7BFF7A0D79527D0251
:100243007F011217CC7BFF7A0D793EE4FD7F031209
:1002530017CC120FF07D037F031217CC7FDC7E05D2
:1002630012193E0202F27BFF7A0D79217D02E4FF2F
:100273001217CC7BFF7A0D792A7D027F021217CCED
:100283007BFF7A0D79457D017F011217CC7BFF7AC5
:100293000D793EE4FD7F031217CC120FF07D037F2F
:1002A300031217CC8049900068E0640170417BFF22
:1002B3007A0D79217D02FF1217CC7BFF7A0D792A03
:1002C3007D027F021217CC7BFF7A0D795B7D027F63
:1002D300011217CC7BFF7A0D793EE4FD7F031217E1
:1002E300CC120FF07D037F031217CCC2B5C2B70245
:1002F300046C7BFF7A0D79647D02E4FF1217CC7BDB
:10030300FF7A0D796C7D027F011217CC7BFF7A0D8A
:1003130079197D027F021217CC12166B900068EFD9
:10032300F0BF02087BFF7A0D7975804E900068E07C
:100333006401703A7BFF7A0D79817D017F03121787
:10034300CC12193AE4FF120F297BFFBF01107A0D7B
:10035300798D7D017F031217CC12121E800B7A0D4B
:10036300799A7D017F031217CC12193A80139000FA
:1003730068E0700D7BFF7A0D79A77D017F0312176B
:10038300CC02046C7BFF7A0D79B97D02E4FF12176E
:10039300CC7BFF7A0D796C7D027F011217CC7BFF3A
:1003A3007A0D79197D027F021217CC12166B900019
:1003B30068EFF06402600302044A7BFF7A0D79C19F
:1003C3007D017F031217CC12193A7F01120F29EF17
:1003D300640170617BFF7A0D79CD7D017F03121774
:1003E300CC7F051218C1900069120A567D097FDC83
:1003F3001219A650F7900069A3A3E0FEA3E0243EE0
:10040300F58274003EF5837401F0900069A3A3A301
:10041300E024E7FF7D011219A650EFE47F08FEFDFB
:10042300FC900069E0F8A3E0F9A3E0FAA3E0FBC3C2
:10043300120A45800D7BFF7A0D79DA7D017F031265
:1004430017CC12193A8022900068E0B401087BFFB0
:100453007A0D79E7800C900068E0700D7BFF7A0DD0
:1004630079A77D017F031217CC12060502008812BB
:1004730006057BFF7A0D79F37D02E4FF1217CC7B2F
:10048300017A0079667FFA12198250F3E49000072B
:10049300F0900063E07003020088900006E0900093
:1004A30065F0900066E0FF900065E0FEC39F4003A7
:1004B300020088743F2EF582E43400F583E0900057
:1004C30067F07060900065E075F008A4FF7B017A27
:1004D3000079089000727408F01216CC50E6900070
:1004E30007E004FF7BFF7A0D7920E4FD1217CCE4CB
:1004F300900064F0900064E0FFC394085017740800
:100503002FF582E43400F583E0FF121B4B90006467
:10051300E004F080DF900007E004F0E0C3940340C0
:10052300030205EB900065E004F00204A512060542
:100533007BFF7A0D79FC7D02E4FF1217CC7B017AF5
:100543000079667FFA12198250F3E4900007F09065
:100553000028E07003020088A3E064016003020046
:1005630088900006E0900065F0900066E0FF900040
:1005730065E0FEC39F4003020088742A2EF582E4DF
:100583003400F583E0900067F0706E900065E075CD
:10059300F008A4FF7B017A0079089000727408F0D8
:1005A3001216CC50E6900007E004FF7BFF7A0D792A
:1005B30020E4FD1217CCE4900064F0900064E0FFA7
:1005C300C39408501774082FF582E43400F583E0D0
:1005D300FF121B4B900064E004F080DF900007E003
:1005E30004F0E0C394034011900065E00490003EE2
:1005F300F0E4900007F0020088900065E004F00248
:02060300056C84
:10060500E4FF121894EF24F660591470030206A54E
:100615001470030207DA147003020830146017140B
:100625006003020887900010E064016003020887F8
:100635007404F0020887900010E06401600302086A
:100645008790002904F0121B597BFF7A0E79057DEE
:10065500027F021217CC7FE87E0312193E121B5946
:10066500020887900010E0FFB401067403F0020849
:1006750087EFB403028010EFB40202800AEFB404DE
:10068500028004EFB405099000107401F002088798
:10069500EF6406600302088790001004F0020887E3
:1006A500900010E0FFB401067402F0020887EF64C1
:1006B50005600302073F900063E0D39403500302F3
:1006C5000887E024FDF090003EE0900006F07BFFF7
:1006D5007A0D7920E4FD7F011217CCE490006FF0CC
:1006E5007F20121B4B90006FE004F0E0C39408409C
:1006F500EF7BFF7A0D7920E4FD7F021217CCE490A1
:10070500006FF07F20121B4B90006FE004F0E0C3F8
:10071500940840EF7BFF7A0D7920E4FD7F031217E3
:10072500CCE490006FF07F20121B4B90006FE0042B
:10073500F0E0C3940840EF020887900010E06406DB
:100745006003020887900028E0D394035003020851
:1007550087A3E064016003020887900028E024FD78
:10076500F090003EE0900006F07BFF7A0D7920E4E2
:10077500FD7F011217CCE490006FF07F20121B4B18
:1007850090006FE004F0E0C3940840EF7BFF7A0D22
:100795007920E4FD7F021217CCE490006FF07F20F2
:1007A500121B4B90006FE004F0E0C3940840EF7B10
:1007B500FF7A0D7920E4FD7F031217CCE490006FDA
:1007C500F07F20121B4B90006FE004F0E0C394080B
:1007D50040EF020887900010E0640160030208877B
:1007E5007405F0E4900063F0900006F07B017A0058
:0907F500796E7FFA12198250F3AB
:1007FE00E4900071F090006EE0FF900071E0FEC397
:10080E009F5076743F2EF582E43400F583E090001D
:10081E0070F07006900063E004F0900071E004F058
:02082E0080D375
:10083000900010E06401704F7406F0E4900063F0E3
:10084000900006F0900028F07B017A00796E7FFA24
:0508500012198250F3B3
:10085500E4900071F090006EE0FF900071E0FEC33F
:100865009F501F742A2EF582E43400F583E0900032
:1008750070F07006900028E004F0900071E004F03C
:0208850080D31E
:020887007F00F0
:01088900224C
:101A9000C7EBCBC9BFAACAD600BBD6B8B4B3F6B39E
:061AA000A7B3C9B9A600BE
:04195E007F017E0087
:10196200E4FDFCC3ED9FEC9E5015E4FBFA0BBB00BB
:0F197200010AEB64154A70F50DBD00010C80E40D
:011981002243
:100E0E00E4900072F0A3F0C200C20130B103020EF2
:100E1E00DB7F01FE12196230B103020EDB20B140FE
:100E2E00900073E004F07006900072E004F07F0210
:100E3E007E00121962C3900073E09498900072E0E5
:100E4E00943A4016D201C200121B597BFF7A1A79CE
:100E5E00907D027F011217CC8006D200C20180BDA8
:100E6E0030B1FD3001617E007F147D007B017A0080
:100E7E00793F120A93E4FD7FFA1219A650F77B010F
:100E8E007A00793F9000877408F07FE8121755506A
:100E9E00ED7B017A0079479000877408F07FF0129D
:100EAE00175550EDE4FD7FDC1219A650F77BFF7A43
:100EBE001A79997D017F021217CC7FDC7E051219FB
:100ECE003E121B597F10223000037F012220B20CEC
:100EDE0012195E20B20630B2FD7F022220B30C1230
:100EEE00195E20B30630B3FD7F032220960C121933
:100EFE005E2096063096FD7F042220B00C12195EFD
:100F0E0020B00630B0FD7F052220970C12195E200E
:0A0F1E0097063097FD7F06227F1032
:010F280022A6
:10189400120E0EEF24FE6013146013146013146010
:1018A40013146013240570127F0A227F0B227F0C0D
:0D18B400227F0D227F0E227F0F227F102247
:031B6C00DFFE2277
:101ABC00AE07AF061EEF600C7FF5121B6C7FF512A4
:051ACC001B6C80EE22FE
:101AA600D2A000D2A10000000000C2A000000000E9
:061AB60000C2A1000022A5
:0A1A4700121915EF1209C6121B1E3A
:101A5100C2A000D2A10000000000D2A0000000003E
:011A61002262
:07171100AD07121AA67FAE1E
:10171800E4FEEFA806088002C333D8FC30E704D201
:10172800A08002C2A000D2A10000000000C2A10E49
:10173800EEB408DE0000D2A00000D2A10000003004
:0C174800A004C2028002D202C2A1000074
:011754002272
:10191500E4FFD2A0FE00C2A10000000000D2A10099
:1019250000EF25E0FF30A0010F00000EEEB408E542
:04193500C2A100004B
:01193900228B
:101B0D00C2A0000000D2A10000000000C2A1000090
:011B1D0022A5
:101B1E00D2A0000000D2A10000000000C2A100006F
:011B2E002294
:1019A600AC07121713200202C322AF041217182025
:1019B6000202C322AF05121718200202C322121A0E
:0319C60051D322D8
:10175500121711200202C322AF0512171820020228
:10176500C322E4FD900087E0FFEDC39F501B1209E3
:1017750080FF1217187F01121ABC200202C32274BF
:0D1785000129F9E43AFA0D80DB121A51D364
:011792002234
:10198200121711200202C322AF05121718200202F9
:10199200C322121AA67FAF121718200202C3221204
:0419A2001A47D322EB
:1016CC00121711200202C322AF05121718200202B2
:1016DC00C322121AA67FAF121718200202C322E4EB
:1016EC00FD900072E014FFEDC39F5014121915EF1A
:1016FC001209C6121B0D740129F9E43AFA0D80E1A6
:04170C00121A47D393
:0117100022B6
:101AD100E4FDFCC3ED9FEC9E500A0000000DBD002B
:041AE100010C80EF85
:011AE50022DE
:101A6200E4FFFEEF25E0FFC2933091034401FFD271
:061A7200930EEEB408ED36
:011A7800224B
:1019C900E4FEEF30E704D2928002C2920000C29393
:0F19D9000000D2930000EF25E0FF0EEEB408E30C
:0119E80022DC
:101AE600E4FEC294EF25E0547E4480FF1219C91229
:041AF6001A62D2940A
:011AFA0022C9
:101836001218527D1E7F2D121852E4FD7F2C1218AD
:0C184600527D8D7F2A1218527D3E7F2BB0
:10185200C294EF25E0547EFF1219C9AF051219C9CF
:02186200D2941E
:011864002261
:051A7900F07D087F086C
:021A7E00AC07B3
:101A8000E4FE121AE6AE07AF04EDF45EFD02185252
:0E1A0900121A7EE4FD7F011218527D807F0AC2
:021A1700AC071A
:0F1A1900E4FE121AE6AE07AF04ED4EFD021852BE
:0614FB007B017A007988F4
:0E15010090009AEBF0A3EAF0A3E9F0A3EDF05E
:10150F007D047F05121A09E4FC90009DE0FFECC3F7
:10151F009F501C90009AE0FBA3E0FAA3E0F98C82A5
:10152F00758300120999FD7F091218520C80DA7D1C
:10153F00037F011218527CFF7F05121AE61CEC6024
:10154F0004EF30E2F37F22121AE690009EE0FBA335
:10155F00E0FAA3E0F9EF1209C67F21121AE6900014
:10156F009EE0FBA3E0FAA3E0F9900001EF0209D897
:100ABF009000A3F0A37401F0A37400F0A37488F066
:100ACF00A37401F0A37400F0A37486F07A00798800
:040ADF007B017F0C0C
:100AE3009000A0EBF0A3EAF0A3E9F090009FEFF0F1
:100AF3009000AA74FEF0E4A3F0A3F0EF24F46010D6
:100B030024FE70169000AB7412F0A37410F0800AE8
:100B13009000AB7477F0A37430F09000ABE04480A6
:100B2300FD7F021218527D807F04121A09E490009F
:100B3300AEF0A3F09000A3E0FF9000AEE0FCA3E0D2
:100B4300FDC39FEC940050289000A0E0FBA3E0FAC3
:100B5300A3E0F98D828C83120999FD7F0912185243
:100B63009000AFE004F070CC9000AEE004F080C4DD
:100B730090009FE0FD7F01121852E0B40C077D80C6
:100B83007F0D121A179000AE7407F0A374D0F07F94
:100B930004121AE69000ADEFF09000AFE024FFF0EE
:100BA3009000AEE034FFF0E07002A3E0601190002B
:100BB300ADE0FF20E0099000ACE0FEEF5E60D07D89
:100BC300807F0D121A7E9000AEE07002A3E07003E6
:100BD300020CBC7F06121AE6EF541B6003020CB62C
:100BE3009000AAF0A3E0FF9000ADE05F30E0069034
:100BF30000AA74FFF090009FE0640C6003020CBC39
:100C03007F0A121AE69000ADEFF07F0C121AE6EF9E
:100C13005407FD6026E024FFFFE434FFFEEF780372
:100C2300C333CE33CED8F97C002DFFEC3EF99000D0
:100C3300A7E0FBA3E0FAA3E0C980169000ADE0753E
:100C4300F008A4FF9000A7E0FBA3E0FAA3E0F9E516
:100C5300F08FF0120A269000ADE0700204F09000CD
:100C6300ADE0D3941240037412F0E49000AEF0A30D
:100C7300F09000ADE0FFC39000AFE09F9000AEE0C6
:100C8300940050357F09121AE69000A4E0FBA3E01C
:100C9300FAA3E0F99000AEE0FCA3E0F5828C83EFC9
:100CA3001209D89000AFE004F070C69000AEE004E3
:100CB300F080BE9000AA74FEF07D807F0C121A179C
:0C0CC300E4FD7F011218529000AAE0FF2F
:010CCF002202
:0D147500900083EFF0A3EBF0A3EAF0A3E9F1
:10148200121A797D077F0D1218527D037F14121AEA
:1014920017900083E0900089F09000A37401F0A3FC
:1014A200F0A37400F0A37489F0A37401F0A3740094
:1014B200F0A37487F07A007989120ADFEF7037900F
:1014C2000087E07004A3E06410702B900089E0FEB6
:1014D200900084E0FBA3E0FAA3E0F9EE1209C690C3
:1014E200008AE0FE900084E0FBA3E0FAA3E0F9901A
:0814F2000001EE0209D87FFEA3
:0114FA0022CF
:0B10B200900083EBF0A3EAF0A3E9F04C
:1010BD00E4900087121A79E4FD7F0D1218527D809D
:1010CD007F0E121A7E90008A7493F0A37420F09014
:1010DD0000A37402F07B01A314F0A37400F0A374B9
:1010ED008AF0A3EBF0A37400F0A37488F07A007972
:1010FD008A7F0C120AE3900086EFF07058FC748A18
:10110D002CF582E43400F583E0FE900083E0FBA330
:10111D00E0FAA3E0F9AF048F82758300EE1209D8CF
:10112D00900087E0FE748A2FF582E43400F583E0A9
:10113D00FDEE6D900087F00CECB404C2748A2CF5B2
:10114D0082E43400F583E0FF900087E06F60069045
:10115D00008674FEF07D807F0E121A17900086E0D7
:01116D00FF82
:01116E00225E
:0B116F00900083EBF0A3EAF0A3E9F08E
:10117A009000887493F0A37470F0E490008EF0FCF1
:10118A00900083E0FBA3E0FAA3E0F9AF048F827535
:10119A008300120999FE748A2FF582E43400F583DC
:1011AA00EEF090008EE0FE8F82758300120999FDA1
:1011BA00EE6D90008EF00CECB404C590009E7401A4
:1011CA00F0A37400F0A3748FF07B017A0079887D14
:1011DA0007121501121A7A9000A37409F0A3740178
:1011EA00F0A37400F0A37488F0A37401F0A3740050
:1011FA00F0A37486F07B017A0079887F0C120AE3E7
:10120A00EF700E900086E07004A3E064187002FF8D
:03121A00227FFE32
:01121D0022AE
:1016020090008DEFF0A3EDF0788F7C007D017E00DD
:101612007F0612095A78957C007D01900088E0FBD4
:10162200A3E0FAA3E0F97E007F0612095A9000A314
:10163200740CF0A37401F0A37400F0A3748DF0A3F2
:101642007401F0A37400F0A3748BF07B017A00792B
:101652008D7F0E120AE3AD07ED70097F08121AE6BC
:08166200EF20E3027DFEAF055D
:01166A00225D
:0B135800900082EBF0A3EAF0A3E9F0A4
:101363009000887430F0A3EFF090009E7401F0A316
:101373007400F0A3748AF07B017A0079887D0212ED
:1013830015019000A37404F0A37401F0A37400F09A
:10139300A37488F0A37401F0A37400F0A37486F01F
:1013A3007B017A0079887F0C120AE3900085EFF0C5
:1013B3007028A3E07004A3E06490701E900082E0A4
:1013C300FBA3E0FAA3E0F8AC02AD037B017A00795A
:1013D300887E007F1012095A800690008574FEF003
:0513E300900085E0FF11
:0113E80022E2
:0B12C200900083EBF0A3EAF0A3E9F03A
:1012CD0090008874A0F0A3EFF090009E7401F0A33D
:1012DD007400F0A3748AF07D021214FB7404120AD8
:1012ED00BFEF7016900086E07004A3E06404700AEE
:1012FD00900088E0540F640A60027FFEEF704B7817
:10130D00887C007D01900083E0FBA3E0FAA3E0F967
:10131D007E007F1012095A90009E7401F0A3740094
:10132D00F0A37498F07D101214FB7412120ABFEF23
:10133D007016900086E07004A3E06404700A9000BB
:0A134D0088E0540F640A60027FFE7E
:011357002273
:10180400D2907F0A7E00121AD1C290121AD1D290BD
:10181400121AD17D0F7F011218527F0A7E00121A0C
:10182400D17D3D7F111218367D407F151218527FED
:02183400002290
:10186500EF64417024121A7A7D3D7F111218527D62
:10187500867F171218527D7F7F261218367FE87EE5
:0F18850003121AD1121AFB80037FFF227F002269
:101AFB007F14121AE6EF540370077D037F14121A3A
:011B0B0017C2
:011B0C0022B6
:071B65007D037F14021A7ECC
:0E1B2F00121804121B65121AFB7F4102186582
:100F2900EF78747C007D017B0160197A0079217E5C
:100F3900007F0612095A787A7C007D017B017A00CC
:100F4900790080177A0079007E007F0612095A78A5
:100F59007A7C007D017B017A0079217E007F06126F
:100F6900095A7B017A00796E7F26121475EF601198
:100F79007B017A00796E7F26121475EF60037F007A
:100F8900227B017A0079701210B2EF60037F002290
:100F99007B017A00797012116FEF60037F00229054
:100FA90000887401F0A37400F0A37470F07B017AD7
:100FB90000797A7D077F60121602EF60037F0022B5
:100FC90078537C007D017B017A0079747E007F066D
:100FD90012095A7B017A0079537F071212C2EF6016
:060FE900037F00227F01DE
:010FEF0022DF
:1019E900E4FDFCC3ED9FEC9E5015E4FBFA0BBB0034
:0F19F900010AEB64034A70F50DBD00010C80E498
:011A080022BB
:101793001217A4EB54F0FF1217A4AF03EFC454F0D5
:0117A300FF46
:1017A400E4FDFCAE05EFA806088002C333D8FC3084
:1017B400E704D2A48002C2A4C2A5D2A50DBD000133
:0717C4000CED64084C70DC21
:0117CB0022FB
:0E1B3D00AB077FF81217937F027E000219E9B2
:0E1B4B00AB077FFA1217937F027E000219E9A2
:101A28007FD07E071219E97F30121B3D7F327E007E
:0F1A38001219E97F0C121B3D7F327E000219E963
:1018EC00EF14601014601314601624037016ED24AA
:1018FC0080F98010ED2490F9800AED2488F9800499
:09190C00ED2498F9AF01021B3D26
:1017CC00900074EBF0A3EAF0A3E9F07C001218ECA3
:1017DC00900074E0FBA3E0FAA3E0F9120980601713
:1017EC00900074A3E475F001120A10A9F0FA120922
:0817FC0080FF121B4B80D92273
:0C1B59007F01121B3D7F0F7E000219E986
:1013F500020003E493A3F8E493A34003F68001F20B
:1014050008DFF48029E493A3F85407240CC8C333F8
:10141500C4540F4420C8834004F456800146F6DFC7
:10142500E4800B010204081020408090157FE47EC3
:10143500019360BCA3FF543F30E509541FFEE493BC
:10144500A360010ECF54C025E060A840B8E493A383
:10145500FAE493A3F8E493A3C8C582C8CAC583CAAE
:10146500F0A3C8C582C8CAC583CADFE9DEE780BE66
:0116010000E8
:10088A00E709F608DFFA8046E709F208DFFA803E50
:10089A0088828C83E709F0A3DFFA8032E309F6083D
:1008AA00DFFA8078E309F208DFFA807088828C83A5
:1008BA00E309F0A3DFFA806489828A83E0A3F60859
:1008CA00DFFA805889828A83E0A3F208DFFA804C33
:1008DA0080D280FA80C680D4806980F2803380100A
:1008EA0080A680EA809A80A880DA80E280CA803373
:1008FA0089828A83ECFAE493A3C8C582C8CCC583EB
:10090A00CCF0A3C8C582C8CCC583CCDFE9DEE780BA
:10091A000D89828A83E493A3F608DFF9ECFAA9F039
:10092A00EDFB2289828A83ECFAE0A3C8C582C8CC8F
:10093A00C583CCF0A3C8C582C8CCC583CCDFEADEA8
:10094A00E880DB89828A83E493A3F208DFF980CC0A
:10095A0088F0EF60010E4E60C388F0ED2402B40403
:10096A000050B9F582EB2402B4040050AF232345AA
:06097A0082239008DA73ED
:10098000BB010689828A83E0225002E722BBFE0275
:09099000E32289828A83E49322A8
:10099900BB010CE58229F582E5833AF583E0225013
:1009A90006E92582F8E622BBFE06E92582F8E2225D
:0D09B900E58229F582E5833AF583E4932277
:1009C600BB010689828A83F0225002F722BBFE0110
:0209D600F3220A
:1009D800F8BB010DE58229F582E5833AF583E8F055
:1009E800225006E92582C8F622BBFE05E92582C801
:0209F800F222E9
:1009FA00C5F0F8A3E028F0C5F0F8E5821582700288
:060A0A001583E038F02224
:100A1000A3F8E0C5F025F0F0E58215827002158399
:060A2000E0C838F0E822F6
:100A2600BB010A89828A83F0E5F0A3F0225006F71B
:0F0A360009A7F01922BBFE06F3E5F009F3192218
:100A4500EB9FF5F0EA9E42F0E99D42F0E89C45F007
:010A5500227E
:0C0A5600ECF0A3EDF0A3EEF0A3EFF02213
:100A6200A8828583F0D083D082120A79120A791281
:100A72000A79120A79E473E493A3C583C5F0C583A6
:100A8200C8C582C8F0A3C583C5F0C583C8C582C8DE
:010A92002241
:100A9300EF4E6012EF60010EEDBB010B89828A837A
:100AA300F0A3DFFCDEFA2289F05007F709DFFCA987
:0C0AB300F022BBFEFCF309DFFCA9F022DE
:00000001FF
