:03000000020A7F72
:0C0A7F00787FE4F6D8FD758120020AC6DD
:100D030041542B5253540D0A0041542B4349505321
:100D1300544152543D22544350222C223139322E15
:100D23003136382E3133372E313637222C343030AA
:100D3300310D0A00B3B5CEBBBAC541303100202016
:100D4300CDA3B3B5B3C9B9A620200041542B434961
:100D53005053454E443D380D0A002020C0EBBFAA36
:070D6300B3C9B9A62020006E
:100C1700460000201210010000460021FFFFFFFFE1
:100C2700FFFF50001100000000000000000000005E
:100C37000000000000500053000000000000FF0704
:100C4700806900000000000054003F000000000021
:100C57000000000000000000000000000000005439
:100C6700002A000000000000000000000000000053
:100C7700000000000000410027FF41006300410021
:100C87003E004100060041000700410029004100E5
:020C9700280033
:0710200012117A7F2C7E0102
:10102700E4FDFCC3ED9FEC9E5015E4FBFA0BBB00FF
:0F103700010AEB64784A70F50DBD00010C80E4EE
:011046002287
:100D6A007B017A0079117F26120B0BEF60117B0150
:100D7A007A0079117F26120B0BEF60037F00227B2A
:100D8A00017A007913120747EF60037F00227B0183
:100D9A007A007913120804EF60037F00229000960C
:100DAA007401F0A37400F0A37413F07B017A007944
:100DBA00007D077F60120C9AEF60037F01227F0299
:010DCA002206
:1005AE007BFF7A0D794E12117A7FB87E0B121027CF
:0605BE007B017A007913B5
:0B05C40090007FEBF0A3EAF0A3E9F049
:1005CF0090008C7401F0A37400F0A37482F0E4FF28
:1005DF0090007FE0FBA3E0FAA3E0F91200F9C45406
:1005EF000FFEC39400400BEED394095005EE243058
:1005FF008003EE2437FD90008CE0FBA3E475F0013F
:10060F00120189A9F0FAED12013F90007FE0FBA3E0
:10061F00E0FAA3E0F91200F9540FFEC39400400B67
:10062F00EED394095005EE24308003EE2437FE906C
:10063F00008CE0FBA3E475F001120189A9F0FAEE3A
:10064F0012013F900080E475F0011201730FEF6407
:10065F000460030205DF90008CE0FBA3E475F0015A
:10066F00120189A9F0FAE412013F7B017A00798225
:01067F002258
:100FCC007B017A0079831209EE787F7C007D017BAE
:100FDC00017A0079837E007F041200D390007FE0B9
:0A0FEC00FCA3E0FDA3E0FEA3E0FF7C
:010FF60022D8
:1008B4009000CF1201CA000000007E007F107D006E
:1008C4007B017A0079BF1201FB7B017A0079BE7F3C
:1008D400FA12106C50F3120D6AEF640270739000F8
:1008E400BEE004F09000BEE0FD7FFA12109050F4D8
:1008F4009000BEE0FFE4FCFDFE9000CF1201BE7844
:10090400BF7C007D017B017A0079CF7E007F0412D9
:1009140000D37B017A0079BF7F05120958EF600389
:100924007F00221205BE78087C007D017E007F08CE
:100934001200D39000BEE01475F008A4FF7B017A86
:100944000079089000837408F0120E5450E57F017A
:03095400227F00FF
:01095700227D
:10117A001200F96010F5993099FDC299740129F9A4
:06118A00E43AFA80EB22BA
:100E920075985075CDFF75CCFD75CBFF75CAFDD227
:100EA200CCD2CDC2C9C2CBD2CA7FD07E0712102704
:100EB2007BFF7A0D790312117A7F107E2712102799
:090EC2007BFF7A0D790C02117A14
:10043800D2B5C2B6D2B7121112121243900010747C
:1004480001F07E007F14FDFB7A00792A1201FB126D
:100458001219120E927B017A00797E7FDC12106CE1
:1004680050F390007EE0640970287B017A00793FA0
:100478009000837408F07FE8120DCB50ED7B017A71
:100488000079479000837408F07FF0120DCB402864
:1004980080EB7B017A00793F9000837408F07FE855
:1004A800120E5450ED7B017A00794790008374084E
:1004B800F07FF0120E5450ED1212437BFF7A0D7943
:1004C800377D027F01120F04120D6A900079EFF058
:1004D80024FE60400470E17FF47E01121027E4FFDF
:1004E800120680EF640170237BFF7A0D79417D014C
:1004F8007F02120F041205BE7D027F03120F041241
:1005080005AE121020C2B5D2B6D2B77FB87E0B1294
:10051800102780A47B017A0079787FFA12106C503A
:10052800F3E4900007F0120D6A900079EFF07FF481
:100538007E011210277F01120680EF6401705DD2E0
:10054800B5C2B6D2B77BFF7A0D795D7D017F021205
:100558000F041205BE7D027F03120F041205AE12AE
:1005680010207F05120FCC90007A1201BE7D097F02
:10057800DC12109050F790007AA3A3E0FEA3E024C9
:100588003EF58274003EF5837401F090007AA3A3CF
:10059800A3E024E7FF7D0112109050EF7FB87E0B97
:0605A8001210270204C03E
:03125600DFFE2296
:1011A600AE07AF061EEF600C7FF51212567FF512E2
:0511B600125680EE223C
:10119000D2A000D2A10000000000C2A00000000008
:0611A00000C2A1000022C4
:0A113100121047EF12013F121208DE
:10113B00C2A000D2A10000000000D2A0000000005D
:01114B002281
:070E1000AD071211907FAE47
:100E1700E4FEEFA806088002C333D8FC30E704D20B
:100E2700A08002C2A000D2A10000000000C2A10E53
:100E3700EEB408DE0000D2A00000D2A1000000300E
:0C0E4700A004C2008002D200C2A1000082
:010E5300227C
:10104700E4FFD2A0FE00C2A10000000000D2A10070
:1010570000EF25E0FF30A0010F00000EEEB408E519
:04106700C2A1000022
:01106B002262
:1011F700C2A0000000D2A10000000000C2A10000B0
:0112070022C4
:10120800D2A0000000D2A10000000000C2A100008E
:0112180022B3
:10109000AC07120E12200002C322AF04120E17205A
:1010A0000002C322AF05120E17200002C322121144
:0310B0003BD3220D
:100E5400120E10200002C322AF05120E172000024A
:100E6400C322E4FD900083E0FFEDC39F501B1200FA
:100E7400F9FF120E177F011211A6200002C322747B
:0D0E84000129F9E43AFA0D80DB12113BD38D
:010E9100223E
:10106C00120E10200002C322AF05120E1720000230
:10107C00C3221211907FAF120E17200002C322124E
:04108C001131D32229
:100DCB00120E10200002C322AF05120E17200002D4
:100DDB00C3221211907FAF120E17200002C322E420
:100DEB00FD900083E014FFEDC39F5014121047EFEA
:100DFB0012013F1211F7740129F9E43AFA0D80E15F
:040E0B00121131D3BC
:010E0F0022C0
:1011BB00E4FDFCC3ED9FEC9E500A0000000DBD004A
:0411CB00010C80EFA4
:0111CF0022FD
:10114C00E4FFFEEF25E0FFC2933091034401FFD290
:06115C00930EEEB408ED55
:01116200226A
:1010B300E4FEEF30E704D2928002C2920000C293B2
:0F10C3000000D2930000EF25E0FF0EEEB408E32B
:0110D20022FB
:1011D000E4FEC294EF25E0547E4480FF1210B31267
:0411E000114CD29448
:0111E40022E8
:100F6E00120F8A7D1E7F2D120F8AE4FD7F2C120F29
:0C0F7E008A7D8D7F2A120F8A7D3E7F2B1A
:100F8A00C294EF25E0547EFF1210B3AF051210B3DE
:020F9A00D294EF
:010F9C002232
:05116300F07D087F088B
:02116800AC07D2
:10116A00E4FE1211D0AE07AF04EDF45EFD020F8A61
:0E10F300121168E4FD7F01120F8A7D807F0AD2
:02110100AC0739
:0F110300E4FE1211D0AE07AF04ED4EFD020F8ACD
:060B93007B017A00799657
:0E0B99009000ABEBF0A3EAF0A3E9F0A3EDF0BF
:100BA7007D047F051210F3E4FC9000AEE0FFECC378
:100BB7009F501C9000ABE0FBA3E0FAA3E0F98C8206
:100BC700758300120112FD7F09120F8A0C80DA7DEE
:100BD700037F01120F8A7CFF7F051211D01CEC6086
:100BE70004EF30E2F37F221211D09000AFE0FBA3B5
:100BF700E0FAA3E0F9EF12013F7F211211D0900034
:100C0700AFE0FBA3E0FAA3E0F9900001EF02015186
:100227009000B1F0A37401F0A37400F0A37496F0EA
:10023700A37401F0A37400F0A37494F07A00799684
:040247007B017F0CAC
:10024B009000AEEBF0A3EAF0A3E9F09000ADEFF075
:10025B009000B874FEF0E4A3F0A3F0EF24F4601068
:10026B0024FE70169000B97412F0A37410F0800A7B
:10027B009000B97477F0A37430F09000B9E044802B
:10028B00FD7F02120F8A7D807F041210F3E4900031
:10029B00BCF0A3F09000B1E0FF9000BCE0FCA3E049
:1002AB00FDC39FEC940050289000AEE0FBA3E0FA56
:1002BB00A3E0F98D828C83120112FD7F09120F8A44
:1002CB009000BDE004F070CC9000BCE004F080C462
:1002DB009000ADE0FD7F01120F8AE0B40C077D802A
:1002EB007F0D1211019000BC7407F0A374D0F07F46
:1002FB00041211D09000BBEFF09000BDE024FFF092
:10030B009000BCE034FFF0E07002A3E060119000BD
:10031B00BBE0FF20E0099000BAE0FEEF5E60D07D0D
:10032B00807F0D1211689000BCE07002A3E0700397
:10033B000204247F061211D0EF541B600302041E2B
:10034B009000B8F0A3E0FF9000BBE05F30E00690B8
:10035B0000B874FFF09000ADE0640C60030204245D
:10036B007F0A1211D09000BBEFF07F0C1211D0EF6F
:10037B005407FD6026E024FFFFE434FFFEEF780313
:10038B00C333CE33CED8F97C002DFFEC3EF9900071
:10039B00B5E0FBA3E0FAA3E0C980169000BBE075C3
:1003AB00F008A4FF9000B5E0FBA3E0FAA3E0F9E5A9
:1003BB00F08FF012019F9000BBE0700204F09000F0
:1003CB00BBE0D3941240037412F0E49000BCF0A392
:1003DB00F09000BBE0FFC39000BDE09F9000BCE03D
:1003EB00940050357F091211D09000B2E0FBA3E0CE
:1003FB00FAA3E0F99000BCE0FCA3E0F5828C83EF5C
:10040B001201519000BDE004F070C69000BCE004F6
:10041B00F080BE9000B874FEF07D807F0C1211014D
:0C042B00E4FD7F01120F8A9000B8E0FF92
:0104370022A2
:0D0B0B00900091EFF0A3EBF0A3EAF0A3E956
:100B18001211637D077F0D120F8A7D037F14121156
:100B280001900091E0900097F09000B17401F0A35B
:100B3800F0A37400F0A37497F0A37401F0A37400F9
:100B4800F0A37495F07A007997120247EF70399004
:100B58000095E07004A3E06410702D900097E0FE0B
:100B6800900092E0FBA3E0FAA3E0F9EE12013F90B7
:100B78000098E0FE900092E0FBA3E0FAA3E0F99071
:0A0B88000001EE12015180027FFE11
:010B92002240
:0B074700900091EBF0A3EAF0A3E9F0B2
:10075200E4900095121163E4FD7F0D120F8A7D80F3
:100762007F0E1211689000987493F0A37420F09099
:1007720000B17402F07B01A314F0A37400F0A3741F
:1007820098F0A3EBF0A37400F0A37496F07A0079CA
:10079200987F0C12024B900094EFF07058FC749802
:1007A2002CF582E43400F583E0FE900091E0FBA397
:1007B200E0FAA3E0F9AF048F82758300EE120151D3
:1007C200900095E0FE74982FF582E43400F583E002
:1007D200FDEE6D900095F00CECB404C274982CF50B
:1007E20082E43400F583E0FF900095E06F600690AC
:1007F200009474FEF07D807F0E121101900094E04F
:01080200FFF6
:0108030022D2
:0B080400900091EBF0A3EAF0A3E9F0F4
:10080F009000967493F0A37470F0E490009CF0FC49
:10081F00900091E0FBA3E0FAA3E0F9AF048F82759B
:10082F008300120112FE74982FF582E43400F583D1
:10083F00EEF090009CE0FE8F82758300120112FD96
:10084F00EE6D90009CF00CECB404C59000AF7401F9
:10085F00F0A37400F0A3749DF07B017A0079967D6C
:10086F0007120B991211649000B17409F0A374016F
:10087F00F0A37400F0A37496F0A37401F0A37400B6
:10088F00F0A37494F07B017A0079967F0C12024BDF
:10089F00EF700F900094E07004A3E064187003FFF2
:0408AF0080027FFE46
:0108B3002222
:100C9A0090009BEFF0A3EDF0789D7C007D017E0033
:100CAA007F061200D378A37C007D01900096E0FBBA
:100CBA00A3E0FAA3E0F97E007F061200D39000B108
:100CCA00740CF0A37401F0A37400F0A3749BF0A356
:100CDA007401F0A37400F0A37499F07B017A00798F
:100CEA009B7F0E12024BAD07ED70097F081211D0DF
:080CFA00EF20E3027DFEAF05CF
:010D020022CE
:0B09EE00900093EBF0A3EAF0A3E9F007
:1009F9009000997430F0A3EFF09000AF7401F0A368
:100A09007400F0A3749BF07B017A0079997D02123E
:100A19000B999000B17404F0A37401F0A37400F071
:100A2900A37499F0A37401F0A37400F0A37497F070
:100A39007B017A0079997F0C12024B900096EFF0B6
:100A49007028A3E07004A3E06490701E900093E006
:100A5900FBA3E0FAA3E0F8AC02AD037B017A0079CD
:100A6900997E007F101200D3800690009674FEF0E4
:050A7900900096E0FF73
:010A7E002255
:0B095800900091EBF0A3EAF0A3E9F09F
:1009630090009674A0F0A3EFF09000AF7401F0A391
:100973007400F0A37498F07D02120B9374041202B6
:1009830027EF7016900094E07004A3E06404700AEB
:10099300900096E0540F640A60027FFEEF704B787C
:1009A300967C007D01900091E0FBA3E0FAA3E0F9BF
:1009B3007E007F101200D39000AF7401F0A3740087
:1009C300F0A374A6F07D10120B937412120227EF9A
:1009D3007016900094E07004A3E06404700A900021
:0A09E30096E0540F640A60027FFEE4
:0109ED0022E7
:100F3C00D2907F0A7E001211BBC2901211BBD290CC
:100F4C001211BB7D0F7F01120F8A7F0A7E001211D6
:100F5C00BB7D3D7F11120F6E7D407F15120F8A7F76
:020F6C00002261
:100F9D00EF644170241211647D3D7F11120F8A7D23
:100FAD00867F17120F8A7D7F7F26120F6E7FE87E58
:0F0FBD00031211BB1211E580037FFF227F002278
:1011E5007F141211D0EF540370077D037F14121181
:0111F50001F8
:0111F60022D6
:07124F007D037F140211680A
:0E121900120F3C12124F1211E57F41020F9D81
:10068000EF78857C007D017B0160197A0079217EFD
:10069000007F061200D3788B7C007D017B017A00FD
:1006A000790080177A0079007E007F061200D378E7
:1006B0008B7C007D017B017A0079217E007F061210
:1006C00000D37B017A00797F7F26120B0BEF60113C
:1006D0007B017A00797F7F26120B0BEF60037F008E
:1006E000227B017A007981120747EF60037F0022A5
:1006F0007B017A007981120804EF60037F00229069
:1007000000967401F0A37400F0A37481F07B017A69
:1007100000798B7D077F60120C9AEF60037F0022C7
:1007200078537C007D017B017A0079857E007F060D
:100730001200D37B017A0079537F07120958EF60CA
:06074000037F00227F018F
:010746002290
:1010D300E4FDFCC3ED9FEC9E5015E4FBFA0BBB0053
:0F10E300010AEB64034A70F50DBD00010C80E4B7
:0110F20022DB
:100ECB00120EDCEB54F0FF120EDCAF03EFC454F048
:010EDB00FF17
:100EDC00E4FDFCAE05EFA806088002C333D8FC3055
:100EEC00E704D2A48002C2A4C2A5D2A50DBD000104
:070EFC000CED64084C70DCF2
:010F030022CB
:0E122700AB077FF8120ECB7F027E000210D3C1
:0E123500AB077FFA120ECB7F027E000210D3B1
:101112007FD07E071210D37F301212277F327E00DB
:0F1122001210D37F0C1212277F327E000210D3DF
:100FF700EF14601014601314601624037016ED24A8
:1010070080F98010ED2490F9800AED2488F9800496
:09101700ED2498F9AF0102122743
:100F040090007FEBF0A3EAF0A3E9F07C00120FF766
:100F140090007FE0FBA3E0FAA3E0F91200F9601768
:100F240090007FA3E475F001120189A9F0FA120080
:080F3400F9FF12123580D922E9
:0C1243007F011212277F0F7E000210D3E3
:100A8B00020438E493A3F8E493A34003F68001F245
:100A9B0008DFF48029E493A3F85407240CC8C3336C
:100AAB00C4540F4420C8834004F456800146F6DF3B
:100ABB00E4800B0102040810204080900C17E47EA8
:100ACB00019360BCA3FF543F30E509541FFEE49330
:100ADB00A360010ECF54C025E060A840B8E493A3F7
:100AEB00FAE493A3F8E493A3C8C582C8CAC583CA22
:100AFB00F0A3C8C582C8CAC583CADFE9DEE780BEDA
:010C9900005A
:10000300E709F608DFFA8046E709F208DFFA803EDF
:1000130088828C83E709F0A3DFFA8032E309F608CC
:10002300DFFA8078E309F208DFFA807088828C8334
:10003300E309F0A3DFFA806489828A83E0A3F608E8
:10004300DFFA805889828A83E0A3F208DFFA804CC2
:1000530080D280FA80C680D4806980F28033801099
:1000630080A680EA809A80A880DA80E280CA803302
:1000730089828A83ECFAE493A3C8C582C8CCC5837A
:10008300CCF0A3C8C582C8CCC583CCDFE9DEE7804A
:100093000D89828A83E493A3F608DFF9ECFAA9F0C9
:1000A300EDFB2289828A83ECFAE0A3C8C582C8CC1F
:1000B300C583CCF0A3C8C582C8CCC583CCDFEADE38
:1000C300E880DB89828A83E493A3F208DFF980CC9A
:1000D30088F0EF60010E4E60C388F0ED2402B40493
:1000E3000050B9F582EB2402B4040050AF2323453A
:0600F3008223900053730C
:1000F900BB010689828A83E0225002E722BBFE0205
:09010900E32289828A83E4932237
:10011200BB010CE58229F582E5833AF583E02250A2
:1001220006E92582F8E622BBFE06E92582F8E222EC
:0D013200E58229F582E5833AF583E4932206
:10013F00BB010689828A83F0225002F722BBFE019F
:02014F00F32299
:10015100F8BB010DE58229F582E5833AF583E8F0E4
:10016100225006E92582C8F622BBFE05E92582C890
:02017100F22278
:10017300C5F0F8A3E028F0C5F0F8E5821582700217
:060183001583E038F022B4
:10018900A3F8E0C5F025F0F0E58215827002158329
:06019900E0C838F0E82286
:10019F00BB010A89828A83F0E5F0A3F0225006F7AB
:0F01AF0009A7F01922BBFE06F3E5F009F31922A8
:0C01BE00ECF0A3EDF0A3EEF0A3EFF022B4
:1001CA00A8828583F0D083D0821201E11201E11264
:1001DA0001E11201E1E473E493A3C583C5F0C58389
:1001EA00C8C582C8F0A3C583C5F0C583C8C582C87F
:0101FA0022E2
:1001FB00EF4E6012EF60010EEDBB010B89828A831B
:10020B00F0A3DFFCDEFA2289F05007F709DFFCA927
:0C021B00F022BBFEFCF309DFFCA9F0227E
:00000001FF
